:0600000000F036EF00F0F5
:10000800FFFF0582F2A40BEF00F00EEF00F0FFFFF8
:1000180031EF00F0FFFF89A014EF00F017EF00F0B8
:10002800FFFF21EF00F0FFFF89CF01F0FE0E011660
:100038000150036E046A2AEF00F0FFFF010E89CF1A
:1000480001F0026A0110036E0250046EFFFF03C044
:1000580089FF640ED66EF294F28AFFFF05921100B2
:10006800FFFFFFFF54EF00F0FFFF9250FE0B926E70
:100078008950FE0B896E46EC00F0FFFF41EF00F05F
:1000880036EF00F0FFFF640ED66ED58CD59AD58476
:10009800D592D590D598F28AF28ED58E1200FFFFB0
:0C00A80005900592000138EF00F0FFFF0A
:020000040030CA
:04000000FF020F0EDE
:0200060081FF78
:00000001FF
