:0600000000F08BEF09F097
:10060000007A797877767574737271706F6E6D6C2D
:100610006B6A696867666564636261393837363565
:100620003433323130313233343536373839616230
:10063000636465666768696A6B6C6D6E6F70717212
:10064000737475767778797A004572726F720000EC
:10065000FFFFB00E2C6E6F0EFFFFE82EFDD72C2E85
:10066000FBD700D03AEC08F02E6EABEF06F0FFFFA0
:100670003604D8A43EEF03F041EF03F0FFFF54EF40
:1006800003F0FFFF33C001F034C002F0000E046E2F
:100690000A0E036E76EC09F0070E0124336E000E8D
:1006A0000220346E65EF03F0FFFF31C001F032C06D
:1006B00002F0000E046E0A0E036E76EC09F0070ECF
:1006C0000124316E000E0220326EFFFF370EF9EC6E
:1006D00008F0FEEF06F0FFFF3604D8A472EF03F037
:1006E00075EF03F0FFFF88EF03F0FFFF33C001F069
:1006F00034C002F0000E046E0A0E036E76EC09F0B0
:10070000080E0124336E000E0220346E99EF03F0C0
:10071000FFFF31C001F032C002F0000E046E0A0E7D
:10072000036E76EC09F0080E0124316E000E0220F3
:10073000326EFFFF380EF9EC08F0FEEF06F0FFFF17
:100740003604D8A4A6EF03F0A9EF03F0FFFFBCEF37
:1007500003F0FFFF33C001F034C002F0000E046E5E
:100760000A0E036E76EC09F0090E0124336E000EBA
:100770000220346ECDEF03F0FFFF31C001F032C034
:1007800002F0000E046E0A0E036E76EC09F0090EFC
:100790000124316E000E0220326EFFFF390EF9EC9B
:1007A00008F0FEEF06F0FFFF3604D8A4DAEF03F0FE
:1007B000DDEF03F0FFFFE7EF03F0FFFF020E366E01
:1007C000040E356E2F0EF9EC08F0FEEF06F0FFFF79
:1007D000020E3618D8A4EFEF03F0F2EF03F0FFFF9C
:1007E000FEEF06F0FFFF010E366E000E346E000EB7
:1007F000336E000E326E000E316ECDEC09F0010E3C
:10080000056E010ED4EC08F0490E056E060E066E5C
:100810009DEC08F0FEEF06F0FFFF3604D8A413EFBE
:1008200004F016EF04F0FFFF29EF04F0FFFF33C0E0
:1008300001F034C002F0000E046E0A0E036E76EC76
:1008400009F0040E0124336E000E0220346E3AEFDC
:1008500004F0FFFF31C001F032C002F0000E046E60
:100860000A0E036E76EC09F0040E0124316E000EC0
:100870000220326EFFFF340EF9EC08F0FEEF06F0B6
:10088000FFFF3604D8A447EF04F04AEF04F0FFFF5F
:100890005DEF04F0FFFF33C001F034C002F0000E42
:1008A000046E0A0E036E76EC09F0050E0124336E19
:1008B000000E0220346E6EEF04F0FFFF31C001F035
:1008C00032C002F0000E046E0A0E036E76EC09F0E0
:1008D000050E0124316E000E0220326EFFFF350E30
:1008E000F9EC08F0FEEF06F0FFFF3604D8A47BEF2A
:1008F00004F07EEF04F0FFFF91EF04F0FFFF33C040
:1009000001F034C002F0000E046E0A0E036E76ECA5
:1009100009F0060E0124336E000E0220346EA2EFA1
:1009200004F0FFFF31C001F032C002F0000E046E8F
:100930000A0E036E76EC09F0060E0124316E000EED
:100940000220326EFFFF360EF9EC08F0FEEF06F0E3
:10095000FFFF3604D8A4AFEF04F0B2EF04F0FFFFBE
:10096000BCEF04F0FFFF020E366E030E356E780EFC
:10097000F9EC08F0FEEF06F0FFFF020E3618D8A4DF
:10098000C4EF04F0C7EF04F0FFFFFEEF06F0FFFF37
:10099000010E366E000E346E000E336E000E326E97
:1009A000000E316ECDEC09F0010E056E010ED4EC97
:1009B00008F0490E056E060E066E9DEC08F0FEEF7F
:1009C00006F0FFFF3604D8A4E8EF04F0EBEF04F0E4
:1009D000FFFFFEEF04F0FFFF33C001F034C002F070
:1009E000000E046E0A0E036E76EC09F0010E01246F
:1009F000336E000E0220346E0FEF05F0FFFF31C0A2
:100A000001F032C002F0000E046E0A0E036E76ECA6
:100A100009F0010E0124316E000E0220326EFFFF3C
:100A2000310EF9EC08F0FEEF06F0FFFF3604D8A413
:100A30001CEF05F01FEF05F0FFFF32EF05F0FFFFA1
:100A400033C001F034C002F0000E046E0A0E036ED3
:100A500076EC09F0020E0124336E000E0220346E93
:100A600043EF05F0FFFF31C001F032C002F0000E8D
:100A7000046E0A0E036E76EC09F0020E0124316E4C
:100A8000000E0220326EFFFF320EF9EC08F0FEEF8E
:100A900006F0FFFF3604D8A450EF05F053EF05F041
:100AA000FFFF66EF05F0FFFF33C001F034C002F036
:100AB000000E046E0A0E036E76EC09F0030E01249C
:100AC000336E000E0220346E77EF05F0FFFF31C069
:100AD00001F032C002F0000E046E0A0E036E76ECD6
:100AE00009F0030E0124316E000E0220326EFFFF6A
:100AF000330EF9EC08F0FEEF06F0FFFF3604D8A441
:100B000084EF05F087EF05F0FFFF91EF05F0FFFFA1
:100B1000020E366E020E356E2D0EF9EC08F0FEEF69
:100B200006F0FFFF020E3618D8A499EF05F09CEFEF
:100B300005F0FFFFFEEF06F0FFFF010E366E000E20
:100B4000346E000E336E000E326E000E316ECDEC40
:100B500009F0010E056E010ED4EC08F0490E056E89
:100B6000060E066E9DEC08F0FEEF06F0FFFF010E8C
:100B7000366E000E346E000E336E000E326E000EB6
:100B8000316ECDEC09F0010E056E010ED4EC08F0CB
:100B9000FEEF06F0FFFF3604D8A4D1EF05F0D4EF46
:100BA00005F0FFFFE5EF05F0FFFF33C001F034C0B3
:100BB00002F0000E046E0A0E036E76EC09F001C01E
:100BC00033F002C034F0F4EF05F0FFFF31C001F064
:100BD00032C002F0000E046E0A0E036E76EC09F0CD
:100BE00001C031F002C032F0FFFF300EF9EC08F026
:100BF000FEEF06F0FFFF315033242F6E32503420C9
:100C0000306E54EF06F0FFFF3150335C2F6E3250E0
:100C10003458306E54EF06F0FFFF33C001F034C09B
:100C200002F031C003F032C004F076EC09F001C0EC
:100C30002FF002C030F054EF06F0FFFF33C001F098
:100C400034C002F031C003F032C004F0C2EC07F04F
:100C500001C02FF002C030F054EF06F0FFFF000E8D
:100C6000306E000E2F6E54EF06F0FFFF35502C6EE5
:100C70002D6A2D50000AD8B440EF06F02EEF06F092
:100C8000FFFF2C50010AD8B4FAEF05F0030AD8B4DC
:100C900003EF06F0010AD8B40CEF06F0070AD8B447
:100CA0001DEF06F02EEF06F0FFFFCDEC09F0010E70
:100CB000056E010ED4EC08F02FC018F030C019F00A
:100CC000000E1B6E0A0E1A6E5FEC09F02FC033F097
:100CD00030C034F0000E326E000E316E010E366EF2
:100CE000FEEF06F0FFFF3604D8A479EF06F07CEFA4
:100CF00006F0FFFF86EF06F0FFFF020E366E010ED4
:100D0000356E2B0EF9EC08F0FEEF06F0FFFF020E39
:100D10003618D8A48EEF06F091EF06F0FFFFFEEF35
:100D200006F0FFFF010E366E000E346E000E336EBD
:100D3000000E326E000E316ECDEC09F0010E056E24
:100D4000010ED4EC08F0490E056E060E066E9DEC01
:100D500008F0FEEF06F0FFFF2E502C6E2D6A2D508E
:100D6000000AD8B4B6EF06F0FEEF06F0FFFF2C50F5
:100D7000000AD8B4FEEF06F00B0AD8B437EF03F040
:100D8000070AD8B46BEF03F0020AD8B49FEF03F060
:100D90001C0AD8B4D3EF03F0070AD8B40CEF04F060
:100DA000030AD8B440EF04F00E0AD8B474EF04F08C
:100DB000040AD8B4A8EF04F0030AD8B4E1EF04F0B1
:100DC0003F0AD8B415EF05F0020AD8B449EF05F090
:100DD000040AD8B47DEF05F00F0AD8B4B6EF05F0D9
:100DE000030AD8B4CAEF05F0060AD8B435EF06F006
:100DF0001C0AD8B472EF06F0FEEF06F0FFFF1200F7
:100E0000FFFFFFFF0EBE0EEF07F00E500AE1020ECD
:100E10000D5CD8A00EEF07F011EF07F0FFFF21EFF8
:100E200007F0FFFF0EBE1EEF07F00E500AE1250E81
:100E30000D5CD8A01EEF07F021EF07F0FFFF2AEFAF
:100E400007F0FFFF0BC0D9FF0CC0DAFF000EDF6E0A
:100E5000BFEF07F0FFFF0BC016F00CC017F00BC080
:100E600014F00CC015F0FFFF09C012F00AC013F017
:100E700009C001F00AC002F00DC003F00EC004F07A
:100E8000C2EC07F001C009F002C00AF009C001F08D
:100E90000AC002F00DC003F00EC004F076EC09F0B9
:100EA000010E0F6E060E106E01500F5E0250105AAA
:100EB00012500F2613501022230E0F26000E102260
:100EC0000FC0F6FF10C0F7FF16C0D9FF17C0DAFF3A
:100ED0000800FFFFF5CFDFFF164A172A09500A1056
:100EE000D8A475EF07F078EF07F0FFFF33EF07F0B6
:100EF000FFFF13BE81EF07F07EEF07F0FFFF8AEFE1
:100F000007F0FFFF16C0D9FF17C0DAFF2D0EDF6E06
:100F1000164A172AFFFF16C0D9FF17C0DAFF000EC6
:100F2000DF6E1606D8A01706B2EF07F0FFFF16C057
:100F3000D9FF17C0DAFFDF50116E14C0D9FF15C0FA
:100F4000DAFF16C0E1FF17C0E2FFDFCFE7FF1606AA
:100F5000D8A0170614C0D9FF15C0DAFF11C0DFFFF3
:100F6000144A152AFFFF1650145C17501558D8A0C4
:100F7000BCEF07F0BFEF07F0FFFF96EF07F0FFFFB2
:100F80001200FFFFFFFF000E066E04BECDEF07F05C
:100F9000CAEF07F0FFFFD4EF07F0FFFF036C041E5A
:100FA000D8B0042A010E066EFFFF02BEDDEF07F087
:100FB000DAEF07F0FFFFE4EF07F0FFFF016C021E1E
:100FC000D8B0022A010E061AFFFF000E086E000EAE
:100FD000076E03500410D8B4F0EF07F0F3EF07F0FA
:100FE000FFFF24EF08F0FFFF010E056EFDEF07F095
:100FF000FFFFD89003360436052AFFFF04AE03EF47
:1010000008F006EF08F0FFFFF8EF07F0FFFFFFFF23
:10101000D890073608360350015C04500258D8A017
:1010200014EF08F017EF08F0FFFF1DEF08F0FFFFC7
:101030000350015E0450025A0780FFFFD89004322B
:101040000332052E07EF08F0FFFF0650D8B42BEF50
:1010500008F02EEF08F0FFFF33EF08F0FFFF076CFA
:10106000081ED8B0082AFFFF07C001F008C002F030
:101070001200FFFFFFFF8C50F00B01098C6E8338CC
:101080000F0B0F0B016E0150D8B449EF08F04CEF75
:1010900008F0FFFF51EF08F0FFFF01500A0F9AEF31
:1010A00008F0FFFF8C50F00B02098C6E83380F0B99
:1010B0000F0B016E0150D8B460EF08F063EF08F039
:1010C000FFFF68EF08F0FFFF0150140F9AEF08F0E0
:1010D000FFFF8C50F00B04098C6E83380F0B0F0B45
:1010E000016E0150D8B477EF08F07AEF08F0FFFFF7
:1010F0007FEF08F0FFFF01501E0F9AEF08F0FFFF8F
:101100008C50F00B08098C6E83380F0B0F0B016E9F
:101110000150D8B48EEF08F091EF08F0FFFF96EF82
:1011200008F0FFFF0150280F9AEF08F0FFFF000EB4
:101130008C6E0150FFFF1200FFFFFFFFB6EF08F0BB
:10114000FFFF05C0F6FF06C0F7FFF86A050EF7645B
:1011500004D00800FFFFF55005D0F6CFE9FFF7CF28
:10116000EAFFEF50F9EC08F0054A062AFFFF05C038
:10117000F6FF06C0F7FFF86A050EF76404D0080012
:10118000FFFFF55005D0F6CFE9FFF7CFEAFFEF50AC
:101190000009D8A4CEEF08F0D1EF08F0FFFFA0EFD0
:1011A00008F0FFFF1200FFFFFFFF066E0604D8A441
:1011B000DCEF08F0DFEF08F0FFFFE6EF08F0FFFFDD
:1011C00005507F0F1CEC09F0F6EF08F0FFFF020E50
:1011D0000618D8A4EEEF08F0F1EF08F0FFFFF6EFE5
:1011E00008F0FFFF0550BF0F1CEC09F0FFFF1200D5
:1011F000FFFFFFFF046E04C003F0033A0F0E031657
:101200000F0E03168B50F00B03108B6E8B888B8A9E
:10121000010E3FEC09F08B9A04C003F00F0E031689
:101220008B50F00B03108B6E8B888B8A010E3FEC7A
:1012300009F08B9A1200FFFFFFFF046E04C003F059
:10124000033A0F0E03160F0E03168B50F00B03100C
:101250008B6E8B988B8A010E3FEC09F08B9A04C041
:1012600003F00F0E03168B50F00B03108B6E8B9850
:101270008B8A010E3FEC09F08B9A1200FFFFFFFFF3
:10128000000E016EFFFF000E026EFFFF00F0022A4B
:10129000090E02644EEF09F051EF09F0FFFF45EF30
:1012A00009F0FFFF012A630E016459EF09F05CEFBA
:1012B00009F0FFFF42EF09F0FFFF1200FFFFFFFF01
:1012C00018C009F019C00AF01C0E0B6E000E0C6E4F
:1012D0001AC00DF01BC00EF001EC07F01C0E056EDD
:1012E000000E066E9DEC08F01200FFFFFFFF01509C
:1012F0000302F3CF05F0F4CF06F001500402F350DF
:10130000062602500302F350062605C001F006C06F
:1013100002F01200FFFFB20EF66E130EF76E000E13
:10132000F86E0900F5CF36F000EE2FF0070EEE6AEA
:10133000E806FDE1000EF86E0001B1EF09F0FFFFD5
:10134000020E1CEC09F0280E1CEC09F0060E1CEC39
:1013500009F00E0E1CEC09F0800E1CEC09F01200D6
:10136000FFFFFFFFC2EC09F0010E056E010ED4EC89
:1013700008F0D3EC09F0FFFF28EC03F0BBEF09F015
:1013800001EF00F0FFFF9450C00B946E8B50C00B28
:101390008B6E9FEC09F01200FFFFFFFF010E1CECAB
:1013A00009F01200FFFFFFFFF00E956E1200FFFF25
:0313B000FFFF013B
:020000040030CA
:04000000FF020F0EDE
:0200060081FF78
:00000001FF
