:0600000000F065EF05F0C1
:10060000007A797877767574737271706F6E6D6C2D
:100610006B6A696867666564636261393837363565
:100620003433323130313233343536373839616230
:10063000636465666768696A6B6C6D6E6F70717212
:0F064000737475767778797A0048492021000025
:10065000FFFF0EBE35EF03F00E500AE1020E0D5CF7
:10066000D8A035EF03F038EF03F0FFFF48EF03F0B9
:10067000FFFF0EBE45EF03F00E500AE1250E0D5CA4
:10068000D8A045EF03F048EF03F0FFFF51EF03F070
:10069000FFFF0BC0D9FF0CC0DAFF000EDF6EE6EFE4
:1006A00003F0FFFF0BC016F00CC017F00BC014F0E6
:1006B0000CC015F0FFFF09C012F00AC013F009C00A
:1006C00001F00AC002F00DC003F00EC004F0E9EC26
:1006D00003F001C009F002C00AF009C001F00AC02D
:1006E00002F00DC003F00EC004F02DEC05F0010E79
:1006F0000F6E060E106E01500F5E0250105A12500F
:100700000F2613501022230E0F26000E10220FC0AA
:10071000F6FF10C0F7FF16C0D9FF17C0DAFF0800B8
:10072000FFFFF5CFDFFF164A172A09500A10D8A499
:100730009CEF03F09FEF03F0FFFF5AEF03F0FFFF82
:1007400013BEA8EF03F0A5EF03F0FFFFB1EF03F036
:10075000FFFF16C0D9FF17C0DAFF2D0EDF6E164A55
:10076000172AFFFF16C0D9FF17C0DAFF000EDF6E91
:100770001606D8A01706D9EF03F0FFFF16C0D9FF61
:1007800017C0DAFFDF50116E14C0D9FF15C0DAFFB1
:1007900016C0E1FF17C0E2FFDFCFE7FF1606D8A0C3
:1007A000170614C0D9FF15C0DAFF11C0DFFF144AC5
:1007B000152AFFFF1650145C17501558D8A0E3EF08
:1007C00003F0E6EF03F0FFFFBDEF03F0FFFF1200C1
:1007D000FFFFFFFF000E066E04BEF4EF03F0F1EF23
:1007E00003F0FFFFFBEF03F0FFFF036C041ED8B024
:1007F000042A010E066EFFFF02BE04EF04F001EFB3
:1008000004F0FFFF0BEF04F0FFFF016C021ED8B0F5
:10081000022A010E061AFFFF000E086E000E076E78
:1008200003500410D8B417EF04F01AEF04F0FFFFE0
:100830004BEF04F0FFFF010E056E24EF04F0FFFF05
:10084000D89003360436052AFFFF04AE2AEF04F0E1
:100850002DEF04F0FFFF1FEF04F0FFFFFFFFD89024
:10086000073608360350015C04500258D8A03BEF0D
:1008700004F03EEF04F0FFFF44EF04F0FFFF0350ED
:10088000015E0450025A0780FFFFD8900432033201
:10089000052E2EEF04F0FFFF0650D8B452EF04F0FF
:1008A00055EF04F0FFFF5AEF04F0FFFF076C081E3E
:1008B000D8B0082AFFFF07C001F008C002F01200FC
:1008C000FFFFFFFF7AEF04F0FFFF05C0F6FF06C051
:1008D000F7FFF86A050EF76404D00800FFFFF55033
:1008E00005D0F6CFE9FFF7CFEAFFEF5098EC04F020
:1008F000054A062AFFFF05C0F6FF06C0F7FFF86AA3
:10090000050EF76404D00800FFFFF55005D0F6CFC0
:10091000E9FFF7CFEAFFEF500009D8A492EF04F007
:1009200095EF04F0FFFF64EF04F0FFFF1200FFFFFC
:10093000FFFF046E04C003F0033A0F0E03160F0E00
:1009400003168B50F00B03108B6E8C808C82010E83
:10095000DEEC04F08C9204C003F00F0E03168B50F3
:10096000F00B03108B6E8C808C82010EDEEC04F099
:100970008C921200FFFFFFFF046E04C003F0033AE5
:100980000F0E03160F0E03168B50F00B03108B6E19
:100990008C908C82010EDEEC04F08C9204C003F08B
:1009A0000F0E03168B50F00B03108B6E8C908C8205
:1009B000010EDEEC04F08C921200FFFFFFFF000E30
:1009C000016EFFFF000E026EFFFF00F0022A090E0B
:1009D0000264EDEF04F0F0EF04F0FFFFE4EF04F049
:1009E000FFFF012A630E0164F8EF04F0FBEF04F04F
:1009F000FFFFE1EF04F0FFFF1200FFFFFFFF54ECE9
:100A000005F0490E056E060E066E61EC04F0000E50
:100A1000196E2F0E186E000E1B6E0A0E1A6E16EC53
:100A200005F0FFFF11EF05F001EF00F0FFFF18C028
:100A300009F019C00AF01C0E0B6E000E0C6E1AC0E5
:100A40000DF01BC00EF028EC03F01C0E056E000E1E
:100A5000066E61EC04F01200FFFFFFFF015003027D
:100A6000F3CF05F0F4CF06F001500402F350062650
:100A700002500302F350062605C001F006C002F042
:100A80001200FFFFFFFF020EBBEC04F0280EBBECD0
:100A900004F0060EBBEC04F00E0EBBEC04F0800E6E
:100AA000BBEC04F01200FFFFFFFF9450F00B946EBC
:100AB0009550FC0B956E8B50F00B8B6E8C50FC0B95
:100AC0008C6E42EC05F01200FFFF000EF86E000184
:060AD000FEEF04F0FFFF41
:020000040030CA
:04000000FF020F0EDE
:0200060081FF78
:00000001FF
