:0600000000F0AAEF1FF062
:103F5200FFFF0001ADEF1FF0FFFF000E946E000E99
:103F62008B6E010E056E000E046EFFFF0550FF0AF8
:103F72008B6E620E016E760EFFFFE82EFDD7012ECC
:103F8200FBD700D00450D8B4C9EF1FF0CCEF1FF01C
:103F9200FFFFD6EF1FF0FFFF05C001F0D8900132FE
:103FA2000150026E036ADCEF1FF0FFFFD890053468
:103FB200026E036A0336FFFF02C005F0800E051889
:103FC200D8A4E6EF1FF0E9EF1FF0FFFFEEEF1FF0BE
:103FD200FFFF010E046EB6EF1FF0FFFF0504D8A429
:103FE200F5EF1FF0F8EF1FF0FFFFB6EF1FF0FFFF36
:0E3FF200000E046EB6EF1FF001EF00F0FFFFAF
:020000040030CA
:04000000FF020F0EDE
:0200060081FF78
:00000001FF
