:0600000000F029EF1FF0E3
:103E2800FFFFF7DDD5AAA2880100FFFF81A01FEFE1
:103E38001FF023EF1FF0FFFF010E25EF1FF0FFFF1C
:103E4800000EFFFF1200FFFFFFFF2A0EF66E3E0E68
:103E5800F76E000EF86E00EE12F010EE08F0090092
:103E6800F5CFEEFFE550E150FAE10001BAEF1FF09F
:103E7800FFFF01500302F3CF05F0F4CF06F0015025
:103E88000402F350062602500302F350062605C02A
:103E980001F006C002F01200FFFFFFFF18C001F09A
:103EA80019C002F07F0E046ECF0E036E3CEC1FF0BB
:103EB800030E0124076E000E0220086E7F0E0A6EA4
:103EC800ED0E096E7BEC1FF007C018F008C019F062
:103ED80018C007F019C008F00CC009F00DC00AF0AE
:103EE8007BEC1FF007500E6E0E501200FFFFFFFF15
:103EF80009500A10D8B483EF1FF086EF1FF0FFFFB8
:103F0800B3EF1FF0FFFF010E0B6E90EF1FF0FFFFE6
:103F1800D89009360A360B2AFFFF0AAE96EF1FF033
:103F280099EF1FF0FFFF8BEF1FF0FFFFFFFF095016
:103F3800075C0A500858D8A0A4EF1FF0A7EF1FF09D
:103F4800FFFFACEF1FF0FFFF0950075E0A50085A49
:103F5800FFFFD8900A3209320B2E9AEF1FF0FFFFAD
:103F680007C007F008C008F01200FFFFFFFF000EAF
:103F7800946E8B689380000E116EFFFF19EC1FF092
:103F8800E806D8A4CAEF1FF0CDEF1FF0FFFFFAEF45
:103F98001FF0FFFF000E0D6E060E0C6E51EC1FF0A9
:103FA8000F6E106A120E0F24D96E000E1020DA6EF2
:103FB800DF508B6E040E106ECF0E0F6EA50EFFFF36
:103FC800E82EFDD70F2EFBD7102EF9D700D01128D9
:103FD800116E060E1118D8A4F4EF1FF0F7EF1FF0BA
:103FE800FFFFFAEF1FF0FFFF000E116EFFFF8B6857
:083FF800C1EF1FF001EF00F022
:020000040030CA
:04000000FF020F0EDE
:0200060081FF78
:00000001FF
