:0600000000F07FEF1EF08E
:023CCC00FFFFF8
:103CCF003F065B4F666D7D077F6F71FFFF000E94A0
:103CDF006E8B689550FC0B956E8C50FC0B8C6EFFA9
:103CEF00FF000E79EC1FF077EF1EF001EF00F0CF21
:103CFF000EF66E3C0EF76E000EF86E00EE01F01031
:103D0F00EE0BF00900F5CFEEFFE550E150FAE100C0
:103D1F00016DEF1EF0FFFF000E116E0DBE9DEF1E29
:103D2F00F09AEF1EF0FFFFA4EF1EF0FFFF0C6C0DDB
:103D3F001ED8B00D2A010E116EFFFF0FBEADEF1E84
:103D4F00F0AAEF1EF0FFFFB2EF1EF0FFFF0E6C0F99
:103D5F001ED8B00F2AFFFF0E500F10D8B4BAEF1EA7
:103D6F00F0BDEF1EF0FFFFEAEF1EF0FFFF010E1098
:103D7F006EC7EF1EF0FFFFD8900E360F36102AFFDA
:103D8F00FF0FAECDEF1EF0D0EF1EF0FFFFC2EF1E04
:103D9F00F0FFFFFFFF0E500C5C0F500D58D8A0DB4B
:103DAF00EF1EF0DEEF1EF0FFFFE3EF1EF0FFFF0E42
:103DBF00500C5E0F500D5AFFFFD8900F320E32107D
:103DCF002ED1EF1EF0FFFF1150D8B4F1EF1EF0F41B
:103DDF00EF1EF0FFFFF9EF1EF0FFFF0C6C0D1ED86A
:103DEF00B00D2AFFFF0CC00CF00DC00DF01200FF3C
:103DFF00FFFFFF000E116E0FBE0BEF1FF008EF1F3E
:103E0F00F0FFFF12EF1FF0FFFF0E6C0F1ED8B00F69
:103E1F002A010E116EFFFF0DBE1BEF1FF018EF1FD3
:103E2F00F0FFFF22EF1FF0FFFF0C6C0D1ED8B00D3F
:103E3F002A010E111AFFFF000E136E000E126E0EE6
:103E4F00500F10D8B42EEF1FF031EF1FF0FFFF62AD
:103E5F00EF1FF0FFFF010E106E3BEF1FF0FFFFD8BB
:103E6F00900E360F36102AFFFF0FAE41EF1FF044B2
:103E7F00EF1FF0FFFF36EF1FF0FFFFFFFFD890128D
:103E8F003613360E500C5C0F500D58D8A052EF1F42
:103E9F00F055EF1FF0FFFF5BEF1FF0FFFF0E500C11
:103EAF005E0F500D5A1280FFFFD8900F320E321056
:103EBF002E45EF1FF0FFFF1150D8B469EF1FF06CC4
:103ECF00EF1FF0FFFF71EF1FF0FFFF126C131ED8F3
:103EDF00B0132AFFFF12C00CF013C00DF01200FF39
:103EEF00FFFFFFFFFF166E0A0E166081EF1FF084B3
:103EFF00EF1FF0FFFFA5EF1FF0FFFF010E1624D9F4
:103F0F006EDA6A000EDA22DF508B6E8C80270E1469
:103F1F006E7F0EFFFFE82EFDD7142EFBD78C90017E
:103F2F00C08BFF8C82270E146E7F0EFFFFE82EFDD5
:103F3F00D7142EFBD78C92FDEF1FF0FFFF640E16E8
:103F4F0060ACEF1FF0AFEF1FF0FFFFECEF1FF0FFC4
:103F5F00FF16C00CF00D6A000E0F6E0A0E0E6E9259
:103F6F00EC1EF0010E0C24D96E000E0D20DA6EDF60
:103F7F00508B6E8C80270E146E7F0EFFFFE82EFD88
:103F8F00D7142EFBD78C9016C00CF00D6A000E0FB5
:103F9F006E0A0E0E6E00EC1FF00C50146E156A01B7
:103FAF000E1424D96E000E1520DA6EDF508B6EFFC3
:103FBF00FF8C82270E146E7F0EFFFFE82EFDD714A5
:103FCF002EFBD78C92FDEF1FF0FFFF0BC08BFF8CEA
:103FDF0080270E146E7F0EFFFFE82EFDD7142EFBE9
:103FEF00D78C900BC08BFFDFEF1FF0FFFF1200FF8E
:013FFF00FFC2
:020000040030CA
:04000000FF020F0EDE
:0200060081FF78
:00000001FF
