:0600000000F057EF00F0D4
:10000800FFFF1A82D9CF15F0DACF16F0F2A40FEF5E
:1000180000F012EF00F0FFFF4FEF00F0FFFF0C04BD
:10002800D8A419EF00F01CEF00F0FFFF34EF00F048
:10003800FFFF8C9219C00DF00E6A000E106E0A0EAA
:100048000F6ED2EC00F0010E0D24D96E000E0E20BA
:10005800DA6EDF508B6E8C80020E0C6E4AEF00F069
:10006800FFFF8C9019C00DF00E6A000E106E0A0E7C
:100078000F6E59EC00F0010E0D24D96E000E0E2003
:10008800DA6EDF508B6E8C82010E0C6EFFFF1E0E37
:10009800D66EF294F28AFFFF16C0DAFF15C0D9FFB8
:1000A8001A921100FFFF60EF01F0FFFF000E126EC1
:1000B80010BE64EF00F061EF00F0FFFF6BEF00F09F
:1000C800FFFF0F6C101ED8B0102A010E126EFFFF32
:1000D8000EBE74EF00F071EF00F0FFFF7BEF00F051
:1000E800FFFF0D6C0E1ED8B00E2A010E121AFFFF6C
:1000F800000E146E000E136E0F501010D8B487EF58
:1001080000F08AEF00F0FFFFBBEF00F0FFFF010EE9
:10011800116E94EF00F0FFFFD8900F361036112AB9
:10012800FFFF10AE9AEF00F09DEF00F0FFFF8FEF9A
:1001380000F0FFFFFFFFD890133614360F500D5C08
:1001480010500E58D8A0ABEF00F0AEEF00F0FFFF54
:10015800B4EF00F0FFFF0F500D5E10500E5A1380E1
:10016800FFFFD89010320F32112E9EEF00F0FFFFE4
:100178001250D8B4C2EF00F0C5EF00F0FFFFCAEF8D
:1001880000F0FFFF136C141ED8B0142AFFFF13C031
:100198000DF014C00EF01200FFFFFFFFFFFF000E6E
:1001A800126E0EBEDDEF00F0DAEF00F0FFFFE4EFB5
:1001B80000F0FFFF0D6C0E1ED8B00E2A010E126E55
:1001C800FFFF10BEEDEF00F0EAEF00F0FFFFF2EFE7
:1001D80000F0FFFF0F6C101ED8B0102AFFFF0F5061
:1001E8001010D8B4FAEF00F0FDEF00F0FFFF2AEF8F
:1001F80001F0FFFF010E116E07EF01F0FFFFD8902D
:100208000F361036112AFFFF10AE0DEF01F010EF78
:1002180001F0FFFF02EF01F0FFFFFFFF0F500D5C41
:1002280010500E58D8A01BEF01F01EEF01F0FFFF91
:1002380023EF01F0FFFF0F500D5E10500E5AFFFF25
:10024800D89010320F32112E11EF01F0FFFF12502B
:10025800D8B431EF01F034EF01F0FFFF39EF01F0CE
:10026800FFFF0D6C0E1ED8B00E2AFFFF0DC00DF05B
:100278000EC00EF01200FFFFFFFF000E946E8B6899
:100288009550FC0B956E8C50FC0B8C6E75EC01F048
:10029800FFFF1928196E040E186ECF0E176EA50EE3
:1002A800FFFFE82EFDD7172EFBD7182EF9D700D061
:1002B8004CEF01F057EF00F0060EF66E030EF76EE6
:1002C800000EF86E00EE01F010EE0CF00900F5CF0C
:1002D800EEFFE550E150FAE11A901A92000140EF62
:1002E80001F0FFFF1E0ED66ED58CD59AD584D58227
:1002F800D580D596F28AF28ED58E1200FFFF3F0682
:0C0308005B4F666D7D077F6F7101FFFF8A
:020000040030CA
:04000000FF020F0EDE
:0200060081FF78
:00000001FF
