:0600000000F08AEF04F09D
:10060000007A797877767574737271706F6E6D6C2D
:100610006B6A696867666564636261393837363565
:100620003433323130313233343536373839616230
:10063000636465666768696A6B6C6D6E6F70717212
:10064000737475767778797A0068692068656C6C60
:0F0650006F20616E642077656C636F6D650000CD
:10066000FFFF7FEC04F070EC04F00A0E076EBE0E84
:10067000FFFFE82EFDD7072EFBD700D0000E036E3C
:10068000000E026E490E046E060E056E72EC03F04B
:100690000A0E076EBE0EFFFFE82EFDD7072EFBD712
:1006A00000D0000E096EFFFF09C002F0036A35ECAE
:1006B00004F0086E0928056E020EAAEC03F008503B
:1006C000CFEC03F0092A0F0E096469EF03F06CEF19
:1006D00003F0FFFF53EF03F0FFFFFFFF6DEF03F0A9
:1006E00001EF00F0FFFF899A060E5FEC04F0898AA3
:1006F000C80EFFFF00F0E82EFCD7899A020E5FECCF
:1007000004F003505FEC04F002505FEC04F095EF4E
:1007100003F0FFFF04C0F6FF05C0F7FF0800FFFF6E
:10072000F5505FEC04F0044A052AFFFF04C0F6FF11
:1007300005C0F7FF0800FFFFF5500009D8A4A3EF9C
:1007400003F0A6EF03F0FFFF89EF03F0FFFF898AB4
:100750001200FFFFFFFF066E0604D8A4B2EF03F0FD
:10076000B5EF03F0FFFFBCEF03F0FFFF05507F0F75
:10077000F2EC03F0CCEF03F0FFFF020E0618D8A452
:10078000C4EF03F0C7EF03F0FFFFCCEF03F0FFFF70
:100790000550BF0FF2EC03F0FFFF1200FFFFFFFF59
:1007A000046E04C003F0033A0F0E03160F0E031677
:1007B0008C50F00B03108C6E8C888C8A010E15EC1B
:1007C00004F08C9A04C003F00F0E03168C50F00B4B
:1007D00003108C6E8C888C8A010E15EC04F08C9AB8
:1007E0001200FFFFFFFF046E04C003F0033A0F0E78
:1007F00003160F0E03168C50F00B03108C6E8C98A2
:100800008C8A010E15EC04F08C9A04C003F00F0ED4
:1008100003168C50F00B03108C6E8C988C8A010E92
:1008200015EC04F08C9A1200FFFFFFFF000E016E22
:10083000FFFF000E026EFFFF00F0022A090E0264A5
:1008400024EF04F027EF04F0FFFF1BEF04F0FFFF9D
:10085000012A630E01642FEF04F032EF04F0FFFF72
:1008600018EF04F0FFFF1200FFFFFFFF899A030E4D
:100870005FEC04F003505FEC04F002505FEC04F016
:10088000FF0E5FEC04F0046E898AC80EFFFF00F0D3
:10089000E82EFCD704501200FFFFFFFF020EF2EC1F
:1008A00003F0280EF2EC03F0060EF2EC03F00E0E4D
:1008B000F2EC03F0800EF2EC03F01200FFFFFFFFFA
:1008C000016E01C0C9FFFFFFC7A069EF04F06CEF24
:1008D00004F0FFFF63EF04F0FFFFC9501200FFFFB9
:1008E000FFFF94969488949A929A898AC79EC69894
:1008F000C78CC68AC650F00BC66E1200FFFFFFFF02
:100900009550C00B956E8C50C00B8C6E4DEC04F066
:100910001200FFFF000EF86E060EF76E000130EFBA
:0409200003F0FFFFE2
:020000040030CA
:04000000FF020F0EDE
:0200060081FF78
:00000001FF
