:0600000000F071EF06F0B4
:10060000007A797877767574737271706F6E6D6C2D
:100610006B6A696867666564636261393837363565
:100620003433323130313233343536373839616230
:10063000636465666768696A6B6C6D6E6F70717212
:10064000737475767778797A000A0D0A0D0A0D0AA7
:100650000D0A0D0A0D0A0D090943414C43554C4141
:10066000544F522050524F4752414D0A0D0A0D002F
:10067000456E746572205365636F6E64204E756DB0
:100680006265723A2000456E746572204669727325
:1006900074204E756D6265723A2000456E74657205
:1006A000204F7065726174696F6E3A2000526573F5
:1006B000756C74203D200000FFFF0EBE69EF03F053
:1006C0000E500AE1020E0D5CD8A069EF03F06CEF4A
:1006D00003F0FFFF7CEF03F0FFFF0EBE79EF03F0A6
:1006E0000E500AE1250E0D5CD8A079EF03F07CEFE7
:1006F00003F0FFFF85EF03F0FFFF0BC0D9FF0CC035
:10070000DAFF000EDF6E1AEF04F0FFFF0BC016F0E9
:100710000CC017F00BC014F00CC015F0FFFF09C09F
:1007200012F00AC013F009C001F00AC002F00DC0B7
:1007300003F00EC004F0D7EC04F001C009F002C0D1
:100740000AF009C001F00AC002F00DC003F00EC0AB
:1007500004F010EC06F0010E0F6E060E106E015044
:100760000F5E0250105A12500F2613501022230E03
:100770000F26000E10220FC0F6FF10C0F7FF16C0A4
:10078000D9FF17C0DAFF0800FFFFF5CFDFFF164AD9
:10079000172A09500A10D8A4D0EF03F0D3EF03F0C2
:1007A000FFFF8EEF03F0FFFF13BEDCEF03F0D9EF86
:1007B00003F0FFFFE5EF03F0FFFF16C0D9FF17C0FE
:1007C000DAFF2D0EDF6E164A172AFFFF16C0D9FF7B
:1007D00017C0DAFF000EDF6E1606D8A017060DEF61
:1007E00004F0FFFF16C0D9FF17C0DAFFDF50116E0B
:1007F00014C0D9FF15C0DAFF16C0E1FF17C0E2FF31
:10080000DFCFE7FF1606D8A0170614C0D9FF15C022
:10081000DAFF11C0DFFF144A152AFFFF1650145CDF
:1008200017501558D8A017EF04F01AEF04F0FFFF87
:10083000F1EF03F0FFFF1200FFFFFFFF490E026E12
:10084000060E036E4FEC05F0860E026E060E036E6A
:100850004FEC05F086EC05F047C02FF048C030F0B3
:100860002FC018F030C019F0F9EC05F06D0E026ED3
:10087000060E036E4FEC05F0700E026E060E036E50
:100880004FEC05F086EC05F047C031F048C032F07F
:1008900031C018F032C019F0F9EC05F06D0E026E9F
:1008A000060E036E4FEC05F09B0E026E060E036EF5
:1008B0004FEC05F047EC06F02E6E2E5037EC06F0AC
:1008C0009DEF04F0FFFF31502F242C6E325030206A
:1008D0002D6EBCEF04F0FFFF31502F5C2C6E3250B8
:1008E00030582D6EBCEF04F0FFFF2FC001F030C078
:1008F00002F031C003F032C004F010EC06F001C089
:100900002CF002C02DF0BCEF04F0FFFF2FC001F06F
:1009100030C002F031C003F032C004F0D7EC04F074
:1009200001C02CF002C02DF0BCEF04F0FFFF000E60
:100930002D6E000E2C6EBCEF04F0FFFF2E502A6EC1
:100940002B6A2B50000AD8B4A8EF04F096EF04F0FD
:10095000FFFF2A502A0AD8B474EF04F0010AD8B471
:1009600062EF04F0060AD8B46BEF04F0020AD8B4C0
:1009700085EF04F096EF04F0FFFF6D0E026E060E99
:10098000036E4FEC05F0AD0E026E060E036E4FECDB
:1009900005F02CC018F02DC019F0F9EC05F06D0E23
:1009A000026E060E036E4FEC05F01200FFFFFFFF14
:1009B000000E066E04BEE2EF04F0DFEF04F0FFFF6E
:1009C000E9EF04F0FFFF036C041ED8B0042A010E07
:1009D000066EFFFF02BEF2EF04F0EFEF04F0FFFF40
:1009E000F9EF04F0FFFF016C021ED8B0022A010EDD
:1009F000061AFFFF000E086E000E076E035004106B
:100A0000D8B405EF05F008EF05F0FFFF39EF05F06A
:100A1000FFFF010E056E12EF05F0FFFFD8900336C1
:100A20000436052AFFFF04AE18EF05F01BEF05F0B2
:100A3000FFFF0DEF05F0FFFFFFFFD89007360836E8
:100A40000350015C04500258D8A029EF05F02CEFA8
:100A500005F0FFFF32EF05F0FFFF0350015E045089
:100A6000025A0780FFFFD89004320332052E1CEF94
:100A700005F0FFFF0650D8B440EF05F043EF05F056
:100A8000FFFF48EF05F0FFFF076C081ED8B0082AEB
:100A9000FFFF07C001F008C002F01200FFFFFFFFD8
:100AA00068EF05F0FFFF02C0F6FF03C0F7FFF86A2A
:100AB000050EF76404D00800FFFFF55005D0F6CF0F
:100AC000E9FFF7CFEAFFEF5037EC06F0024A032ABE
:100AD000FFFF02C0F6FF03C0F7FFF86A050EF764D8
:100AE00004D00800FFFFF55005D0F6CFE9FFF7CF9F
:100AF000EAFFEF500009D8A480EF05F083EF05F07E
:100B0000FFFF52EF05F0FFFF1200FFFFFFFF000E97
:100B1000486E000E476EFFFF47EC06F0076EA8EF29
:100B200005F0FFFF47C001F048C002F0000E046E60
:100B30000A0E036E10EC06F007500126000E02228A
:100B4000D00E0124476EFF0E0220486E8BEF05F099
:100B5000FFFF470E0718D8A4B0EF05F0B3EF05F07C
:100B6000FFFF91EF05F0FFFF1200FFFFFFFF046E94
:100B700004C003F0033A0F0E03160F0E03168B503A
:100B8000F00B03108B6E8B988B8A010ED9EC05F05D
:100B90008B9A04C003F00F0E03168B50F00B03105A
:100BA0008B6E8B988B8A010ED9EC05F08B9A120014
:100BB000FFFFFFFF000E016EFFFF000E026EFFFF42
:100BC00000F0022A090E0264E8EF05F0EBEF05F0F1
:100BD000FFFFDFEF05F0FFFF012A630E0164F3EF73
:100BE00005F0F6EF05F0FFFFDCEF05F0FFFF120068
:100BF000FFFFFFFF18C009F019C00AF01A0E0B6EB4
:100C0000000E0C6E000E0E6E0A0E0D6E5CEC03F004
:100C10001A0E026E000E036E4FEC05F01200FFFF7D
:100C2000FFFF01500302F3CF05F0F4CF06F00150AF
:100C30000402F350062602500302F350062605C0B4
:100C400001F006C002F01200FFFFFFFF020EB6EC3B
:100C500005F0280EB6EC05F0060EB6EC05F00E0E0B
:100C6000B6EC05F0800EB6EC05F01200FFFFFFFFBA
:100C7000016EFFFFACA23FEF06F042EF06F0FFFF70
:100C800039EF06F0FFFF01C0ADFF1200FFFFFFFFCD
:100C9000FFFF9EAA4EEF06F051EF06F0FFFF48EF70
:100CA00006F0FFFFAECF01F001501200FFFFFFFF83
:100CB0007CEC06F087EC06F065EC06F0FFFF1DEC1F
:100CC00004F05EEF06F001EF00F0FFFF190EAF6ECB
:100CD000AC84AC98AB8E9D8AAB88F28EF28C1200FD
:100CE000FFFF00EE33F0160EEE6AE806FDE1000E9F
:100CF000F86E000157EF06F0FFFF9450C00B946EA2
:100D00008B50C00B8B6E25EC06F01200FFFFFFFF2F
:100D1000190EAF6EAC84AC98AB8EAC8A1200FFFF9C
:020D2000FFFFD3
:020000040030CA
:04000000FF020F0EDE
:0200060081FF78
:00000001FF
