:0600000000F042EF04F0E5
:10060000007A797877767574737271706F6E6D6C2D
:100610006B6A696867666564636261393837363565
:100620003433323130313233343536373839616230
:10063000636465666768696A6B6C6D6E6F70717212
:10064000737475767778797A0000FFFF000E166E66
:1006500032EC04F0176E3AEF03F0FFFF010E1624A0
:10066000D96EDA6A000EDA2217C0DFFF32EC04F02E
:10067000176E162AFFFF370E1718D8A442EF03F0A3
:1006800045EF03F0FFFF2DEF03F0FFFF010E1624EF
:10069000D96EDA6A000EDA22000EDF6E1200FFFF5A
:1006A000FFFF5BEC04F0010E196E010E77EC03F016
:1006B0004FEC04F0FFFF25EC03F0010E196E010E64
:1006C00077EC03F0010E196E000E1A6E02EC04F0C6
:1006D000620E1B6E760EFFFFE82EFDD71B2EFBD79A
:1006E00000D066EC04F05AEF03F001EF00F0FFFFDA
:1006F0001A6E1A04D8A47FEF03F082EF03F0FFFF15
:1007000089EF03F0FFFF19507F0FBFEC03F099EF63
:1007100003F0FFFF020E1A18D8A491EF03F094EF34
:1007200003F0FFFF99EF03F0FFFF1950BF0FBFEC7D
:1007300003F0FFFF1200FFFFFFFF186E18C017F055
:10074000173A0F0E17160F0E17168B50F00B1710C7
:100750008B6E8B888B8A010EE2EC03F08B9A18C0AB
:1007600017F00F0E17168B50F00B17108B6E8B882F
:100770008B8A010EE2EC03F08B9A1200FFFFFFFF61
:10078000186E18C017F0173A0F0E17160F0E17161F
:100790008B50F00B17108B6E8B988B8A010EE2EC4E
:1007A00003F08B9A18C017F00F0E17168B50F00B32
:1007B00017108B6E8B988B8A010EE2EC03F08B9AEC
:1007C0001200FFFFFFFF000E156EFFFF000E166EFA
:1007D000FFFF00F0162A090E1664F1EF03F0F4EFA4
:1007E00003F0FFFFE8EF03F0FFFF152A630E156427
:1007F000FCEF03F0FFEF03F0FFFFE5EF03F0FFFF77
:100800001200FFFFFFFF0FEF04F0FFFF19C0D9FF39
:100810001AC0DAFFDF509CEC03F0194A1A2AFFFFD6
:1008200019C0D9FF1AC0DAFFDF50D8A41AEF04F0BC
:100830001DEF04F0FFFF05EF04F0FFFF1200FFFFC4
:10084000FFFF020EBFEC03F0280EBFEC03F0060E14
:10085000BFEC03F00E0EBFEC03F0800EBFEC03F014
:100860001200FFFFFFFFFFFF9EAA39EF04F03CEFED
:1008700004F0FFFF33EF04F0FFFFAECF15F015508B
:100880001200FFFF00EE01F0140EEE6AE806FDE133
:10089000000EF86E060EF76E000150EF03F0FFFF3A
:1008A000190EAF6EAC84AC98AB8E9D8AAB88F28E7D
:1008B000F28C1200FFFFFFFF9450C00B946E8B5020
:1008C000C00B8B6E20EC04F01200FFFFFFFF010E47
:0A08D000BFEC03F01200FFFFFFFF72
:020000040030CA
:04000000FF020F0EDE
:0200060081FF78
:00000001FF
