:0600000000F03DEF00F0EE
:10000800FFFF3982F3CF09F0F4CF0AF09EAC0FEF6F
:1000180000F012EF00F0FFFF35EF00F0FFFFC450D3
:10002800086E076AC3500724376E000E0820386E22
:1000380037C001F038C002F0130E046E880E036E4C
:10004800B0EC05F00A0E076EFFFF023402320132EF
:10005800072E28EF00F001C037F002C038F09E9C50
:10006800C284FFFF0AC0F4FF09C0F3FF39921100F0
:06007800FFFFE8EF05F0B8
:10060000007A797877767574737271706F6E6D6C2D
:100610006B6A696867666564636261393837363565
:100620003433323130313233343536373839616230
:10063000636465666768696A6B6C6D6E6F70717212
:10064000737475767778797A00566F6C746D65740B
:1006500065720000FFFF18BE37EF03F018500AE183
:10066000020E175CD8A037EF03F03AEF03F0FFFF5C
:100670004AEF03F0FFFF18BE47EF03F018500AE1FE
:10068000250E175CD8A047EF03F04AEF03F0FFFFF9
:1006900053EF03F0FFFF15C0D9FF16C0DAFF000EBD
:1006A000DF6EE8EF03F0FFFF15C020F016C021F069
:1006B00015C01EF016C01FF0FFFF13C01CF014C0C1
:1006C0001DF013C00BF014C00CF017C00DF018C0D3
:1006D0000EF0EBEC03F00BC013F00CC014F013C0E1
:1006E0000BF014C00CF017C00DF018C00EF09BEC0E
:1006F00005F0010E196E060E1A6E0B50195E0C50A5
:100700001A5A1C5019261D501A22230E1926000EA3
:100710001A2219C0F6FF1AC0F7FF20C0D9FF21C066
:10072000DAFF0800FFFFF5CFDFFF204A212A135030
:100730001410D8A49EEF03F0A1EF03F0FFFF5CEFCD
:1007400003F0FFFF1DBEAAEF03F0A7EF03F0FFFFCA
:10075000B3EF03F0FFFF20C0D9FF21C0DAFF2D0E59
:10076000DF6E204A212AFFFF20C0D9FF21C0DAFF17
:10077000000EDF6E2006D8A02106DBEF03F0FFFF9E
:1007800020C0D9FF21C0DAFFDF501B6E1EC0D9FF89
:100790001FC0DAFF20C0E1FF21C0E2FFDFCFE7FF8B
:1007A0002006D8A021061EC0D9FF1FC0DAFF1BC03B
:1007B000DFFF1E4A1F2AFFFF20501E5C21501F58DA
:1007C000D8A0E5EF03F0E8EF03F0FFFFBFEF03F081
:1007D000FFFF1200FFFFFFFF000E106E0EBEF6EFD0
:1007E00003F0F3EF03F0FFFFFDEF03F0FFFF0D6CED
:1007F0000E1ED8B00E2A010E106EFFFF0CBE06EFC3
:1008000004F003EF04F0FFFF0DEF04F0FFFF0B6CAB
:100810000C1ED8B00C2A010E101AFFFF000E126E2B
:10082000000E116E0D500E10D8B419EF04F01CEF2D
:1008300004F0FFFF4DEF04F0FFFF010E0F6E26EFF7
:1008400004F0FFFFD8900D360E360F2AFFFF0EAED4
:100850002CEF04F02FEF04F0FFFF21EF04F0FFFF77
:10086000FFFFD890113612360D500B5C0E500C580D
:10087000D8A03DEF04F040EF04F0FFFF46EF04F096
:10088000FFFF0D500B5E0E500C5A1180FFFFD890E9
:100890000E320D320F2E30EF04F0FFFF1050D8B49F
:1008A00054EF04F057EF04F0FFFF5CEF04F0FFFF9C
:1008B000116C121ED8B0122AFFFF11C00BF012C02B
:1008C0000CF01200FFFFFFFF7CEF04F0FFFF0FC0F2
:1008D000F6FF10C0F7FFF86A050EF76404D00800B1
:1008E000FFFFF55005D0F6CFE9FFF7CFEAFFEF5055
:1008F0001EEC05F00F4A102AFFFF0FC0F6FF10C0D4
:10090000F7FFF86A050EF76404D00800FFFFF55002
:1009100005D0F6CFE9FFF7CFEAFFEF500009D8A4E2
:1009200094EF04F097EF04F0FFFF66EF04F0FFFF91
:100930001200FFFFFFFF000ECDEC04F0D7EC05F036
:10094000010E0F6E010EF9EC04F0490E0F6E060E4B
:10095000106E63EC04F0010E0F6E020EF9EC04F061
:10096000FFFF620E366E760EFFFFE82EFDD7362EA5
:10097000FBD700D0010E0F6E020EF9EC04F037C069
:1009800022F038C023F0000E256E0A0E246E84EC8F
:1009900005F0B0EF04F03DEF00F0FFFF0C6EC18EEC
:1009A000C150F00BC16E0CC00BF0D8900B36D89034
:1009B0000B36D8900B36C250C70B0B10C26EC18CD1
:1009C000C28EC28CC2809E9C9D8CF28EF28C000ED8
:1009D0000D6EFFFF00F00D2A090E0D64F2EF04F01A
:1009E000F5EF04F0FFFFE9EF04F0FFFFC28412000F
:1009F000FFFFFFFF106E1004D8A401EF05F004EF15
:100A000005F0FFFF0BEF05F0FFFF0F507F0F41ECEC
:100A100005F01BEF05F0FFFF020E1018D8A413EF2E
:100A200005F016EF05F0FFFF1BEF05F0FFFF0F507D
:100A3000BF0F41EC05F0FFFF1200FFFFFFFF0E6E3E
:100A40000EC00DF00D3A0F0E0D160F0E0D168B5039
:100A5000F00B0D108B6E8C808C82010E64EC05F017
:100A60008C920EC00DF00F0E0D168B50F00B0D106A
:100A70008B6E8C808C82010E64EC05F08C921200DF
:100A8000FFFFFFFF0E6E0EC00DF00D3A0F0E0D169C
:100A90000F0E0D168B50F00B0D108B6E8C908C8200
:100AA000010E64EC05F08C920EC00DF00F0E0D16C9
:100AB0008B50F00B0D108B6E8C908C82010E64ECC1
:100AC00005F08C921200FFFFFFFF000E0B6EFFFF80
:100AD000000E0C6EFFFF00F00C2A090E0C6473EF81
:100AE00005F076EF05F0FFFF6AEF05F0FFFF0B2A38
:100AF000630E0B647EEF05F081EF05F0FFFF67EFFB
:100B000005F0FFFF1200FFFFFFFF22C013F023C01C
:100B100014F0260E156E000E166E24C017F025C0B8
:100B200018F02AEC03F0260E0F6E000E106E63EC28
:100B300004F01200FFFFFFFF0B500D02F3CF0FF088
:100B4000F4CF10F00B500E02F35010260C500D0293
:100B5000F35010260FC00BF010C00CF01200FFFF76
:100B6000FFFF01500302F3CF05F0F4CF06F0015070
:100B70000402F350062602500302F350062605C075
:100B800001F006C002F01200FFFFFFFF020E41EC71
:100B900005F0280E41EC05F0060E41EC05F00E0EB6
:100BA00041EC05F0800E41EC05F01200FFFFFFFF65
:100BB0009450F00B946E9550FC0B956E8B50F00B8F
:100BC0008B6E8C50FC0B8C6EC5EC05F01200FFFF99
:100BD000386A376A39903992000EF86E00019AEF40
:040BE00004F0FFFF1F
:020000040030CA
:04000000FF020F0EDE
:0200060081FF78
:00000001FF
